{
  "contractName": "Lottery",
  "abi": [
    {
      "inputs": [],
      "stateMutability": "nonpayable",
      "type": "constructor"
    },
    {
      "inputs": [],
      "name": "manager",
      "outputs": [
        {
          "internalType": "address",
          "name": "",
          "type": "address"
        }
      ],
      "stateMutability": "view",
      "type": "function",
      "constant": true
    },
    {
      "inputs": [
        {
          "internalType": "uint256",
          "name": "",
          "type": "uint256"
        }
      ],
      "name": "players",
      "outputs": [
        {
          "internalType": "address payable",
          "name": "",
          "type": "address"
        }
      ],
      "stateMutability": "view",
      "type": "function",
      "constant": true
    },
    {
      "stateMutability": "payable",
      "type": "receive",
      "payable": true
    },
    {
      "inputs": [],
      "name": "getBalance",
      "outputs": [
        {
          "internalType": "uint256",
          "name": "",
          "type": "uint256"
        }
      ],
      "stateMutability": "view",
      "type": "function",
      "constant": true
    },
    {
      "inputs": [],
      "name": "selectWinner",
      "outputs": [],
      "stateMutability": "nonpayable",
      "type": "function"
    },
    {
      "inputs": [],
      "name": "allplayer",
      "outputs": [
        {
          "internalType": "address payable[]",
          "name": "",
          "type": "address[]"
        }
      ],
      "stateMutability": "view",
      "type": "function",
      "constant": true
    }
  ],
  "bytecode": "0x608060405234801561001057600080fd5b50336000806101000a81548173ffffffffffffffffffffffffffffffffffffffff021916908373ffffffffffffffffffffffffffffffffffffffff160217905550610ab4806100606000396000f3fe60806040526004361061004e5760003560e01c806312065fe0146100d157806313819203146100fc57806333a99e0414610127578063481c6a751461013e578063f71d96cb14610169576100cc565b366100cc57670de0b6b3a7640000341461006757600080fd5b6001339080600181540180825580915050600190039060005260206000200160009091909190916101000a81548173ffffffffffffffffffffffffffffffffffffffff021916908373ffffffffffffffffffffffffffffffffffffffff160217905550005b600080fd5b3480156100dd57600080fd5b506100e66101a6565b6040516100f391906105e7565b60405180910390f35b34801561010857600080fd5b50610111610207565b60405161011e91906106f2565b60405180910390f35b34801561013357600080fd5b5061013c610295565b005b34801561014a57600080fd5b5061015361047d565b6040516101609190610735565b60405180910390f35b34801561017557600080fd5b50610190600480360381019061018b9190610781565b6104a1565b60405161019d91906107bd565b60405180910390f35b60008060009054906101000a900473ffffffffffffffffffffffffffffffffffffffff1673ffffffffffffffffffffffffffffffffffffffff163373ffffffffffffffffffffffffffffffffffffffff161461020157600080fd5b47905090565b6060600180548060200260200160405190810160405280929190818152602001828054801561028b57602002820191906000526020600020905b8160009054906101000a900473ffffffffffffffffffffffffffffffffffffffff1673ffffffffffffffffffffffffffffffffffffffff1681526020019060010190808311610241575b5050505050905090565b60008054906101000a900473ffffffffffffffffffffffffffffffffffffffff1673ffffffffffffffffffffffffffffffffffffffff163373ffffffffffffffffffffffffffffffffffffffff1614610323576040517f08c379a000000000000000000000000000000000000000000000000000000000815260040161031a9061085b565b60405180910390fd5b6003600180549050101561036c576040517f08c379a0000000000000000000000000000000000000000000000000000000008152600401610363906108ed565b60405180910390fd5b600060018054905061037c6104e0565b610386919061093c565b905060006001828154811061039e5761039d61096d565b5b9060005260206000200160009054906101000a900473ffffffffffffffffffffffffffffffffffffffff1690508073ffffffffffffffffffffffffffffffffffffffff166108fc6103ed6101a6565b9081150290604051600060405180830381858888f19350505050158015610418573d6000803e3d6000fd5b50600067ffffffffffffffff8111156104345761043361099c565b5b6040519080825280602002602001820160405280156104625781602001602082028036833780820191505090505b5060019080519060200190610478929190610527565b505050565b60008054906101000a900473ffffffffffffffffffffffffffffffffffffffff1681565b600181815481106104b157600080fd5b906000526020600020016000915054906101000a900473ffffffffffffffffffffffffffffffffffffffff1681565b60006001436104ef91906109fa565b404260018054905060405160200161050993929190610a47565b6040516020818303038152906040528051906020012060001c905090565b8280548282559060005260206000209081019282156105a0579160200282015b8281111561059f5782518260006101000a81548173ffffffffffffffffffffffffffffffffffffffff021916908373ffffffffffffffffffffffffffffffffffffffff16021790555091602001919060010190610547565b5b5090506105ad91906105b1565b5090565b5b808211156105ca5760008160009055506001016105b2565b5090565b6000819050919050565b6105e1816105ce565b82525050565b60006020820190506105fc60008301846105d8565b92915050565b600081519050919050565b600082825260208201905092915050565b6000819050602082019050919050565b600073ffffffffffffffffffffffffffffffffffffffff82169050919050565b60006106598261062e565b9050919050565b6106698161064e565b82525050565b600061067b8383610660565b60208301905092915050565b6000602082019050919050565b600061069f82610602565b6106a9818561060d565b93506106b48361061e565b8060005b838110156106e55781516106cc888261066f565b97506106d783610687565b9250506001810190506106b8565b5085935050505092915050565b6000602082019050818103600083015261070c8184610694565b905092915050565b600061071f8261062e565b9050919050565b61072f81610714565b82525050565b600060208201905061074a6000830184610726565b92915050565b600080fd5b61075e816105ce565b811461076957600080fd5b50565b60008135905061077b81610755565b92915050565b60006020828403121561079757610796610750565b5b60006107a58482850161076c565b91505092915050565b6107b78161064e565b82525050565b60006020820190506107d260008301846107ae565b92915050565b600082825260208201905092915050565b7f4f6e6c7920746865206d616e616765722063616e2073656c656374207468652060008201527f77696e6e65720000000000000000000000000000000000000000000000000000602082015250565b60006108456026836107d8565b9150610850826107e9565b604082019050919050565b6000602082019050818103600083015261087481610838565b9050919050565b7f4174206c656173742033207061727469636970616e747320617265207265717560008201527f6972656400000000000000000000000000000000000000000000000000000000602082015250565b60006108d76024836107d8565b91506108e28261087b565b604082019050919050565b60006020820190508181036000830152610906816108ca565b9050919050565b7f4e487b7100000000000000000000000000000000000000000000000000000000600052601260045260246000fd5b6000610947826105ce565b9150610952836105ce565b9250826109625761096161090d565b5b828206905092915050565b7f4e487b7100000000000000000000000000000000000000000000000000000000600052603260045260246000fd5b7f4e487b7100000000000000000000000000000000000000000000000000000000600052604160045260246000fd5b7f4e487b7100000000000000000000000000000000000000000000000000000000600052601160045260246000fd5b6000610a05826105ce565b9150610a10836105ce565b925082821015610a2357610a226109cb565b5b828203905092915050565b6000819050919050565b610a4181610a2e565b82525050565b6000606082019050610a5c6000830186610a38565b610a6960208301856105d8565b610a7660408301846105d8565b94935050505056fea2646970667358221220d0ec5bdf5be5a3cecad987619c60fb6898cdbba2ec4fa73b118553c241f7602264736f6c634300080b0033",
  "immutableReferences": {},
  "source": "\r\n// SPDX-License-Identifier: MIT\r\n\r\npragma solidity >=0.5.0 <0.9.0;\r\n\r\ncontract Lottery {\r\n    address public manager;// data type which  stores the address of the manager\r\n    address payable [] public players; //array is used because there are more than one participants\r\n\r\nconstructor()\r\n{\r\n    manager =msg.sender; // global variable\r\n}\r\n\r\n//payable function for transfering some amount of ether\r\n// for this we use receive function .... which can be used only one time in the contract\r\n// always use with external keyword and always payble and no arguments pass here\r\nreceive() external payable// participants tranfer the ether ,this function gets called\r\n{\r\n   require(msg.value==1 ether);//used as if else statement.\r\n    players.push(payable(msg.sender));// payable ether is tranfered to msg.sender that is manager\r\n}\r\nfunction getBalance() public view returns(uint)//to check the balance received\r\n{\r\n    require(msg.sender==manager);\r\nreturn address (this).balance;// fetching the balance from the address of this particular contracr\r\n}\r\n function random() private view returns(uint) {\r\n        return uint(keccak256(abi.encode(blockhash(block.number - 1), block.timestamp, players.length)));\r\n    }\r\n\r\n function selectWinner() public {\r\n        require(msg.sender == manager, \"Only the manager can select the winner\");\r\n        require(players.length >= 3, \"At least 3 participants are required\");\r\n\r\n        uint index = random() % players.length;\r\n        address payable winner = players[index];\r\n\r\n        winner.transfer(getBalance());\r\n\r\n    \r\n\r\n    players = new address payable[](0);\r\n    }\r\n function allplayer() public view returns (address payable [] memory){\r\n     return players;\r\n }\r\n}\r\n//> contract address:    0x341F194E187e82CE836884f8E2A6EDd39B85c746",
  "sourcePath": "C:\\Users\\pragy\\Desktop\\Dapp\\web3lab\\contracts\\Lottery.sol",
  "compiler": {
    "name": "solc",
    "version": "0.8.11+commit.d7f03943.Emscripten.clang"
  },
  "schemaVersion": "3.4.13",
  "updatedAt": "2023-05-03T18:56:24.907Z",
  "networkType": "ethereum",
  "devdoc": {
    "kind": "dev",
    "methods": {},
    "version": 1
  },
  "userdoc": {
    "kind": "user",
    "methods": {},
    "version": 1
  }
}